{
  "contractName": "Bridge",
  "abi": [
    {
      "inputs": [
        {
          "internalType": "address[]",
          "name": "initAddress",
          "type": "address[]"
        },
        {
          "internalType": "uint64[]",
          "name": "initPowers",
          "type": "uint64[]"
        }
      ],
      "payable": false,
      "stateMutability": "nonpayable",
      "type": "constructor"
    },
    {
      "anonymous": false,
      "inputs": [
        {
          "indexed": false,
          "internalType": "bytes",
          "name": "to",
          "type": "bytes"
        },
        {
          "indexed": false,
          "internalType": "address",
          "name": "token",
          "type": "address"
        },
        {
          "indexed": false,
          "internalType": "uint64",
          "name": "value",
          "type": "uint64"
        }
      ],
      "name": "Lock",
      "type": "event"
    },
    {
      "anonymous": false,
      "inputs": [
        {
          "indexed": false,
          "internalType": "string",
          "name": "name",
          "type": "string"
        },
        {
          "indexed": false,
          "internalType": "address",
          "name": "tokenAddress",
          "type": "address"
        }
      ],
      "name": "NewEdgewareERC20",
      "type": "event"
    },
    {
      "anonymous": false,
      "inputs": [
        {
          "indexed": false,
          "internalType": "address",
          "name": "to",
          "type": "address"
        },
        {
          "indexed": false,
          "internalType": "address",
          "name": "token",
          "type": "address"
        },
        {
          "indexed": false,
          "internalType": "uint64",
          "name": "value",
          "type": "uint64"
        }
      ],
      "name": "Unlock",
      "type": "event"
    },
    {
      "anonymous": false,
      "inputs": [
        {
          "indexed": false,
          "internalType": "address[]",
          "name": "newAddresses",
          "type": "address[]"
        },
        {
          "indexed": false,
          "internalType": "uint64[]",
          "name": "newPowers",
          "type": "uint64[]"
        },
        {
          "indexed": true,
          "internalType": "uint256",
          "name": "seq",
          "type": "uint256"
        }
      ],
      "name": "Update",
      "type": "event"
    },
    {
      "constant": true,
      "inputs": [
        {
          "internalType": "uint256",
          "name": "",
          "type": "uint256"
        }
      ],
      "name": "addresses",
      "outputs": [
        {
          "internalType": "address",
          "name": "",
          "type": "address"
        }
      ],
      "payable": false,
      "stateMutability": "view",
      "type": "function"
    },
    {
      "constant": true,
      "inputs": [],
      "name": "getAddresses",
      "outputs": [
        {
          "internalType": "address[]",
          "name": "",
          "type": "address[]"
        }
      ],
      "payable": false,
      "stateMutability": "view",
      "type": "function"
    },
    {
      "constant": true,
      "inputs": [],
      "name": "getPowers",
      "outputs": [
        {
          "internalType": "uint64[]",
          "name": "",
          "type": "uint64[]"
        }
      ],
      "payable": false,
      "stateMutability": "view",
      "type": "function"
    },
    {
      "constant": true,
      "inputs": [],
      "name": "getTotalPower",
      "outputs": [
        {
          "internalType": "uint64",
          "name": "",
          "type": "uint64"
        }
      ],
      "payable": false,
      "stateMutability": "view",
      "type": "function"
    },
    {
      "constant": true,
      "inputs": [
        {
          "internalType": "address[]",
          "name": "addressesArr",
          "type": "address[]"
        },
        {
          "internalType": "uint64[]",
          "name": "powersArr",
          "type": "uint64[]"
        }
      ],
      "name": "hashValidatorArrays",
      "outputs": [
        {
          "internalType": "bytes32",
          "name": "hash",
          "type": "bytes32"
        }
      ],
      "payable": false,
      "stateMutability": "pure",
      "type": "function"
    },
    {
      "constant": true,
      "inputs": [
        {
          "internalType": "uint256",
          "name": "",
          "type": "uint256"
        }
      ],
      "name": "powers",
      "outputs": [
        {
          "internalType": "uint64",
          "name": "",
          "type": "uint64"
        }
      ],
      "payable": false,
      "stateMutability": "view",
      "type": "function"
    },
    {
      "constant": true,
      "inputs": [],
      "name": "totalPower",
      "outputs": [
        {
          "internalType": "uint64",
          "name": "",
          "type": "uint64"
        }
      ],
      "payable": false,
      "stateMutability": "view",
      "type": "function"
    },
    {
      "constant": false,
      "inputs": [
        {
          "internalType": "address[]",
          "name": "newAddress",
          "type": "address[]"
        },
        {
          "internalType": "uint64[]",
          "name": "newPowers",
          "type": "uint64[]"
        },
        {
          "internalType": "uint256[]",
          "name": "signers",
          "type": "uint256[]"
        },
        {
          "internalType": "uint8[]",
          "name": "v",
          "type": "uint8[]"
        },
        {
          "internalType": "bytes32[]",
          "name": "r",
          "type": "bytes32[]"
        },
        {
          "internalType": "bytes32[]",
          "name": "s",
          "type": "bytes32[]"
        }
      ],
      "name": "update",
      "outputs": [],
      "payable": false,
      "stateMutability": "nonpayable",
      "type": "function"
    },
    {
      "constant": true,
      "inputs": [
        {
          "internalType": "bytes32",
          "name": "hash",
          "type": "bytes32"
        },
        {
          "internalType": "uint256[]",
          "name": "signers",
          "type": "uint256[]"
        },
        {
          "internalType": "uint8[]",
          "name": "v",
          "type": "uint8[]"
        },
        {
          "internalType": "bytes32[]",
          "name": "r",
          "type": "bytes32[]"
        },
        {
          "internalType": "bytes32[]",
          "name": "s",
          "type": "bytes32[]"
        }
      ],
      "name": "verifyValidators",
      "outputs": [
        {
          "internalType": "bool",
          "name": "",
          "type": "bool"
        }
      ],
      "payable": false,
      "stateMutability": "view",
      "type": "function"
    },
    {
      "constant": true,
      "inputs": [
        {
          "internalType": "string",
          "name": "name",
          "type": "string"
        },
        {
          "internalType": "uint256",
          "name": "decimals",
          "type": "uint256"
        }
      ],
      "name": "hashNewEdgewareERC20",
      "outputs": [
        {
          "internalType": "bytes32",
          "name": "hash",
          "type": "bytes32"
        }
      ],
      "payable": false,
      "stateMutability": "pure",
      "type": "function"
    },
    {
      "constant": true,
      "inputs": [
        {
          "internalType": "address",
          "name": "to",
          "type": "address"
        },
        {
          "internalType": "address",
          "name": "token",
          "type": "address"
        },
        {
          "internalType": "uint64",
          "name": "amount",
          "type": "uint64"
        }
      ],
      "name": "hashUnlock",
      "outputs": [
        {
          "internalType": "bytes32",
          "name": "hash",
          "type": "bytes32"
        }
      ],
      "payable": false,
      "stateMutability": "pure",
      "type": "function"
    },
    {
      "constant": true,
      "inputs": [
        {
          "internalType": "string",
          "name": "name",
          "type": "string"
        }
      ],
      "name": "getEdgewareTokenAddress",
      "outputs": [
        {
          "internalType": "address",
          "name": "addr",
          "type": "address"
        }
      ],
      "payable": false,
      "stateMutability": "view",
      "type": "function"
    },
    {
      "constant": true,
      "inputs": [
        {
          "internalType": "address",
          "name": "addr",
          "type": "address"
        }
      ],
      "name": "isEdgewareTokenAddress",
      "outputs": [
        {
          "internalType": "bool",
          "name": "isCosmosAddr",
          "type": "bool"
        }
      ],
      "payable": false,
      "stateMutability": "view",
      "type": "function"
    },
    {
      "constant": false,
      "inputs": [
        {
          "internalType": "bytes",
          "name": "to",
          "type": "bytes"
        },
        {
          "internalType": "address",
          "name": "tokenAddr",
          "type": "address"
        },
        {
          "internalType": "uint64",
          "name": "amount",
          "type": "uint64"
        }
      ],
      "name": "lock",
      "outputs": [
        {
          "internalType": "bool",
          "name": "",
          "type": "bool"
        }
      ],
      "payable": true,
      "stateMutability": "payable",
      "type": "function"
    },
    {
      "constant": false,
      "inputs": [
        {
          "internalType": "address payable",
          "name": "to",
          "type": "address"
        },
        {
          "internalType": "address",
          "name": "token",
          "type": "address"
        },
        {
          "internalType": "uint64",
          "name": "amount",
          "type": "uint64"
        },
        {
          "internalType": "uint256[]",
          "name": "signers",
          "type": "uint256[]"
        },
        {
          "internalType": "uint8[]",
          "name": "v",
          "type": "uint8[]"
        },
        {
          "internalType": "bytes32[]",
          "name": "r",
          "type": "bytes32[]"
        },
        {
          "internalType": "bytes32[]",
          "name": "s",
          "type": "bytes32[]"
        }
      ],
      "name": "unlock",
      "outputs": [
        {
          "internalType": "bool",
          "name": "",
          "type": "bool"
        }
      ],
      "payable": false,
      "stateMutability": "nonpayable",
      "type": "function"
    },
    {
      "constant": false,
      "inputs": [
        {
          "internalType": "string",
          "name": "name",
          "type": "string"
        },
        {
          "internalType": "uint256",
          "name": "decimals",
          "type": "uint256"
        },
        {
          "internalType": "uint256[]",
          "name": "signers",
          "type": "uint256[]"
        },
        {
          "internalType": "uint8[]",
          "name": "v",
          "type": "uint8[]"
        },
        {
          "internalType": "bytes32[]",
          "name": "r",
          "type": "bytes32[]"
        },
        {
          "internalType": "bytes32[]",
          "name": "s",
          "type": "bytes32[]"
        }
      ],
      "name": "newEdgewareERC20",
      "outputs": [
        {
          "internalType": "address",
          "name": "addr",
          "type": "address"
        }
      ],
      "payable": false,
      "stateMutability": "nonpayable",
      "type": "function"
    }
  ],
  "bytecode": "0x608060405260006003553480156200001657600080fd5b506040516200551b3803806200551b833981810160405260408110156200003c57600080fd5b81019080805160405193929190846401000000008211156200005d57600080fd5b838201915060208201858111156200007457600080fd5b82518660208202830111640100000000821117156200009257600080fd5b8083526020830192505050908051906020019060200280838360005b83811015620000cb578082015181840152602081019050620000ae565b5050505090500160405260200180516040519392919084640100000000821115620000f557600080fd5b838201915060208201858111156200010c57600080fd5b82518660208202830111640100000000821117156200012a57600080fd5b8083526020830192505050908051906020019060200280838360005b838110156200016357808201518184015260208101905062000146565b5050505090500160405250505081816200018482826200018f60201b60201c565b5050505050620006af565b60008251604051908082528060200260200182016040528015620001c25781602001602082028038833980820191505090505b5060009080519060200190620001da929190620004dd565b5081516040519080825280602002602001820160405280156200020c5781602001602082028038833980820191505090505b5060019080519060200190620002249291906200056c565b506000600260006101000a81548167ffffffffffffffff021916908367ffffffffffffffff16021790555060008090505b83518110156200038c578381815181106200026c57fe5b6020026020010151600082815481106200028257fe5b9060005260206000200160006101000a81548173ffffffffffffffffffffffffffffffffffffffff021916908373ffffffffffffffffffffffffffffffffffffffff160217905550828181518110620002d757fe5b602002602001015160018281548110620002ed57fe5b90600052602060002090600491828204019190066008026101000a81548167ffffffffffffffff021916908367ffffffffffffffff1602179055508281815181106200033557fe5b6020026020010151600260008282829054906101000a900467ffffffffffffffff160192506101000a81548167ffffffffffffffff021916908367ffffffffffffffff160217905550808060010191505062000255565b5060006003549050807f41e3e7fbffa8e8d5523f548e6d8f0130b20aa4615fe6d442dae2db7172c84e4a6000600160405180806020018060200183810383528581815481526020019150805480156200043b57602002820191906000526020600020905b8160009054906101000a900473ffffffffffffffffffffffffffffffffffffffff1673ffffffffffffffffffffffffffffffffffffffff1681526020019060010190808311620003f0575b50508381038252848181548152602001915080548015620004b057602002820191906000526020600020906000905b82829054906101000a900467ffffffffffffffff1667ffffffffffffffff16815260200190600801906020826007010492830192600103820291508084116200046a5790505b505094505050505060405180910390a2600360008154809291906001019190505550600191505092915050565b82805482825590600052602060002090810192821562000559579160200282015b82811115620005585782518260006101000a81548173ffffffffffffffffffffffffffffffffffffffff021916908373ffffffffffffffffffffffffffffffffffffffff16021790555091602001919060010190620004fe565b5b5090506200056891906200062f565b5090565b828054828255906000526020600020906003016004900481019282156200061c5791602002820160005b83821115620005e457835183826101000a81548167ffffffffffffffff021916908367ffffffffffffffff160217905550926020019260080160208160070104928301926001030262000596565b80156200061a5782816101000a81549067ffffffffffffffff0219169055600801602081600701049283019260010302620005e4565b505b5090506200062b919062000675565b5090565b6200067291905b808211156200066e57600081816101000a81549073ffffffffffffffffffffffffffffffffffffffff02191690555060010162000636565b5090565b90565b620006ac91905b80821115620006a857600081816101000a81549067ffffffffffffffff0219169055506001016200067c565b5090565b90565b614e5c80620006bf6000396000f3fe6080604052600436106200010a5760003560e01c8063a39fac121162000097578063edf26d9b1162000061578063edf26d9b146200101b578063f05554b3146200109a578063f3a8b6431462001211578063ff13a1ac146200131e576200010a565b8063a39fac121462000ab4578063b8ada1b01462000b25578063c2961cd71462000d26578063db3ad22c1462000fd9576200010a565b806353976a2611620000d957806353976a2614620005595780637015fcdb146200059b578063720bd4d4146200068857806382de8d0a14620006f5576200010a565b80632e9216bd146200010f57806340c1bfab14620001ac578063505051481462000213578063532435401462000322575b600080fd5b3480156200011c57600080fd5b5062000196600480360360608110156200013557600080fd5b81019080803573ffffffffffffffffffffffffffffffffffffffff169060200190929190803573ffffffffffffffffffffffffffffffffffffffff169060200190929190803567ffffffffffffffff1690602001909291905050506200138f565b6040518082815260200191505060405180910390f35b348015620001b957600080fd5b50620001e960048036036020811015620001d257600080fd5b810190808035906020019092919050505062001446565b604051808267ffffffffffffffff1667ffffffffffffffff16815260200191505060405180910390f35b3480156200022057600080fd5b50620002e0600480360360208110156200023957600080fd5b81019080803590602001906401000000008111156200025757600080fd5b8201836020820111156200026a57600080fd5b803590602001918460018302840111640100000000831117156200028d57600080fd5b91908080601f016020809104026020016040519081016040528093929190818152602001838380828437600081840152601f19601f82011690508083019250505050505050919291929050505062001482565b604051808273ffffffffffffffffffffffffffffffffffffffff1673ffffffffffffffffffffffffffffffffffffffff16815260200191505060405180910390f35b3480156200032f57600080fd5b5062000517600480360360c08110156200034857600080fd5b81019080803590602001906401000000008111156200036657600080fd5b8201836020820111156200037957600080fd5b803590602001918460018302840111640100000000831117156200039c57600080fd5b90919293919293908035906020019092919080359060200190640100000000811115620003c857600080fd5b820183602082011115620003db57600080fd5b80359060200191846020830284011164010000000083111715620003fe57600080fd5b9091929391929390803590602001906401000000008111156200042057600080fd5b8201836020820111156200043357600080fd5b803590602001918460208302840111640100000000831117156200045657600080fd5b9091929391929390803590602001906401000000008111156200047857600080fd5b8201836020820111156200048b57600080fd5b80359060200191846020830284011164010000000083111715620004ae57600080fd5b909192939192939080359060200190640100000000811115620004d057600080fd5b820183602082011115620004e357600080fd5b803590602001918460208302840111640100000000831117156200050657600080fd5b909192939192939050505062001517565b604051808273ffffffffffffffffffffffffffffffffffffffff1673ffffffffffffffffffffffffffffffffffffffff16815260200191505060405180910390f35b3480156200056657600080fd5b506200057162001941565b604051808267ffffffffffffffff1667ffffffffffffffff16815260200191505060405180910390f35b348015620005a857600080fd5b506200067260048036036040811015620005c157600080fd5b8101908080359060200190640100000000811115620005df57600080fd5b820183602082011115620005f257600080fd5b803590602001918460018302840111640100000000831117156200061557600080fd5b91908080601f016020809104026020016040519081016040528093929190818152602001838380828437600081840152601f19601f820116905080830192505050505050509192919290803590602001909291905050506200195f565b6040518082815260200191505060405180910390f35b3480156200069557600080fd5b50620006db60048036036020811015620006ae57600080fd5b81019080803573ffffffffffffffffffffffffffffffffffffffff169060200190929190505050620019e5565b604051808215151515815260200191505060405180910390f35b3480156200070257600080fd5b5062000ab2600480360360c08110156200071b57600080fd5b81019080803590602001906401000000008111156200073957600080fd5b8201836020820111156200074c57600080fd5b803590602001918460208302840111640100000000831117156200076f57600080fd5b919080806020026020016040519081016040528093929190818152602001838360200280828437600081840152601f19601f82011690508083019250505050505050919291929080359060200190640100000000811115620007d057600080fd5b820183602082011115620007e357600080fd5b803590602001918460208302840111640100000000831117156200080657600080fd5b919080806020026020016040519081016040528093929190818152602001838360200280828437600081840152601f19601f820116905080830192505050505050509192919290803590602001906401000000008111156200086757600080fd5b8201836020820111156200087a57600080fd5b803590602001918460208302840111640100000000831117156200089d57600080fd5b919080806020026020016040519081016040528093929190818152602001838360200280828437600081840152601f19601f82011690508083019250505050505050919291929080359060200190640100000000811115620008fe57600080fd5b8201836020820111156200091157600080fd5b803590602001918460208302840111640100000000831117156200093457600080fd5b919080806020026020016040519081016040528093929190818152602001838360200280828437600081840152601f19601f820116905080830192505050505050509192919290803590602001906401000000008111156200099557600080fd5b820183602082011115620009a857600080fd5b80359060200191846020830284011164010000000083111715620009cb57600080fd5b919080806020026020016040519081016040528093929190818152602001838360200280828437600081840152601f19601f8201169050808301925050505050505091929192908035906020019064010000000081111562000a2c57600080fd5b82018360208201111562000a3f57600080fd5b8035906020019184602083028401116401000000008311171562000a6257600080fd5b919080806020026020016040519081016040528093929190818152602001838360200280828437600081840152601f19601f82011690508083019250505050505050919291929050505062001a3b565b005b34801562000ac157600080fd5b5062000acc62001bd6565b6040518080602001828103825283818151815260200191508051906020019060200280838360005b8381101562000b1157808201518184015260208101905062000af4565b505050509050019250505060405180910390f35b34801562000b3257600080fd5b5062000d0c600480360360e081101562000b4b57600080fd5b81019080803573ffffffffffffffffffffffffffffffffffffffff169060200190929190803573ffffffffffffffffffffffffffffffffffffffff169060200190929190803567ffffffffffffffff1690602001909291908035906020019064010000000081111562000bbd57600080fd5b82018360208201111562000bd057600080fd5b8035906020019184602083028401116401000000008311171562000bf357600080fd5b90919293919293908035906020019064010000000081111562000c1557600080fd5b82018360208201111562000c2857600080fd5b8035906020019184602083028401116401000000008311171562000c4b57600080fd5b90919293919293908035906020019064010000000081111562000c6d57600080fd5b82018360208201111562000c8057600080fd5b8035906020019184602083028401116401000000008311171562000ca357600080fd5b90919293919293908035906020019064010000000081111562000cc557600080fd5b82018360208201111562000cd857600080fd5b8035906020019184602083028401116401000000008311171562000cfb57600080fd5b909192939192939050505062001c66565b604051808215151515815260200191505060405180910390f35b34801562000d3357600080fd5b5062000fbf600480360360a081101562000d4c57600080fd5b81019080803590602001909291908035906020019064010000000081111562000d7457600080fd5b82018360208201111562000d8757600080fd5b8035906020019184602083028401116401000000008311171562000daa57600080fd5b919080806020026020016040519081016040528093929190818152602001838360200280828437600081840152601f19601f8201169050808301925050505050505091929192908035906020019064010000000081111562000e0b57600080fd5b82018360208201111562000e1e57600080fd5b8035906020019184602083028401116401000000008311171562000e4157600080fd5b919080806020026020016040519081016040528093929190818152602001838360200280828437600081840152601f19601f8201169050808301925050505050505091929192908035906020019064010000000081111562000ea257600080fd5b82018360208201111562000eb557600080fd5b8035906020019184602083028401116401000000008311171562000ed857600080fd5b919080806020026020016040519081016040528093929190818152602001838360200280828437600081840152601f19601f8201169050808301925050505050505091929192908035906020019064010000000081111562000f3957600080fd5b82018360208201111562000f4c57600080fd5b8035906020019184602083028401116401000000008311171562000f6f57600080fd5b919080806020026020016040519081016040528093929190818152602001838360200280828437600081840152601f19601f8201169050808301925050505050505091929192905050506200225f565b604051808215151515815260200191505060405180910390f35b34801562000fe657600080fd5b5062000ff1620025cb565b604051808267ffffffffffffffff1667ffffffffffffffff16815260200191505060405180910390f35b3480156200102857600080fd5b5062001058600480360360208110156200104157600080fd5b8101908080359060200190929190505050620025e5565b604051808273ffffffffffffffffffffffffffffffffffffffff1673ffffffffffffffffffffffffffffffffffffffff16815260200191505060405180910390f35b348015620010a757600080fd5b50620011fb60048036036040811015620010c057600080fd5b8101908080359060200190640100000000811115620010de57600080fd5b820183602082011115620010f157600080fd5b803590602001918460208302840111640100000000831117156200111457600080fd5b919080806020026020016040519081016040528093929190818152602001838360200280828437600081840152601f19601f820116905080830192505050505050509192919290803590602001906401000000008111156200117557600080fd5b8201836020820111156200118857600080fd5b80359060200191846020830284011164010000000083111715620011ab57600080fd5b919080806020026020016040519081016040528093929190818152602001838360200280828437600081840152601f19601f82011690508083019250505050505050919291929050505062002622565b6040518082815260200191505060405180910390f35b62001304600480360360608110156200122957600080fd5b81019080803590602001906401000000008111156200124757600080fd5b8201836020820111156200125a57600080fd5b803590602001918460018302840111640100000000831117156200127d57600080fd5b91908080601f016020809104026020016040519081016040528093929190818152602001838380828437600081840152601f19601f820116905080830192505050505050509192919290803573ffffffffffffffffffffffffffffffffffffffff169060200190929190803567ffffffffffffffff169060200190929190505050620026b9565b604051808215151515815260200191505060405180910390f35b3480156200132b57600080fd5b506200133662002b46565b6040518080602001828103825283818151815260200191508051906020019060200280838360005b838110156200137b5780820151818401526020810190506200135e565b505050509050019250505060405180910390f35b6000838383604051602001808473ffffffffffffffffffffffffffffffffffffffff1673ffffffffffffffffffffffffffffffffffffffff1660601b81526014018373ffffffffffffffffffffffffffffffffffffffff1673ffffffffffffffffffffffffffffffffffffffff1660601b81526014018267ffffffffffffffff1667ffffffffffffffff1660c01b815260080193505050506040516020818303038152906040528051906020012090509392505050565b600181815481106200145457fe5b9060005260206000209060049182820401919006600802915054906101000a900467ffffffffffffffff1681565b60006004826040518082805190602001908083835b60208310620014bc578051825260208201915060208101905060208303925062001497565b6001836020036101000a038019825116818451168082178552505050505050905001915050908152602001604051809103902060009054906101000a900473ffffffffffffffffffffffffffffffffffffffff169050919050565b60008073ffffffffffffffffffffffffffffffffffffffff1660048d8d604051808383808284378083019250505092505050908152602001604051809103902060009054906101000a900473ffffffffffffffffffffffffffffffffffffffff1673ffffffffffffffffffffffffffffffffffffffff1614620015e6576040517f08c379a000000000000000000000000000000000000000000000000000000000815260040180806020018281038252603281526020018062004df66032913960400191505060405180910390fd5b60008c8c8c6040516020018084848082843780830192505050828152602001935050505060405160208183030381529060405280519060200120905062001735818b8b80806020026020016040519081016040528093929190818152602001838360200280828437600081840152601f19601f820116905080830192505050505050508a8a80806020026020016040519081016040528093929190818152602001838360200280828437600081840152601f19601f82011690508083019250505050505050898980806020026020016040519081016040528093929190818152602001838360200280828437600081840152601f19601f82011690508083019250505050505050888880806020026020016040519081016040528093929190818152602001838360200280828437600081840152601f19601f820116905080830192505050505050506200225f565b620017a8576040517f08c379a000000000000000000000000000000000000000000000000000000000815260040180806020018281038252601d8152602001807f56616c696461746f7220766572696669636174696f6e206661696c656400000081525060200191505060405180910390fd5b6000604051620017b89062002f22565b604051809103906000f080158015620017d5573d6000803e3d6000fd5b5090508060048f8f604051808383808284378083019250505092505050908152602001604051809103902060006101000a81548173ffffffffffffffffffffffffffffffffffffffff021916908373ffffffffffffffffffffffffffffffffffffffff1602179055506001600560008373ffffffffffffffffffffffffffffffffffffffff1673ffffffffffffffffffffffffffffffffffffffff16815260200190815260200160002060006101000a81548160ff0219169083151502179055507f4c1a14f13809c48833e31ee036db65a945296ed5c6ea5659adf2eb51a1c1b1b48e8e8360405180806020018373ffffffffffffffffffffffffffffffffffffffff1673ffffffffffffffffffffffffffffffffffffffff1681526020018281038252858582818152602001925080828437600081840152601f19601f82011690508083019250505094505050505060405180910390a180925050509b9a5050505050505050505050565b6000600260009054906101000a900467ffffffffffffffff16905090565b600082826040516020018083805190602001908083835b602083106200199b578051825260208201915060208101905060208303925062001976565b6001836020036101000a0380198251168184511680821785525050505050509050018281526020019250505060405160208183030381529060405280519060200120905092915050565b6000600560008373ffffffffffffffffffffffffffffffffffffffff1673ffffffffffffffffffffffffffffffffffffffff16815260200190815260200160002060009054906101000a900460ff169050919050565b6000868660405160200180838051906020019060200280838360005b8381101562001a7457808201518184015260208101905062001a57565b50505050905001828051906020019060200280838360005b8381101562001aa957808201518184015260208101905062001a8c565b505050509050019250505060405160208183030381529060405280519060200120905062001adb81868686866200225f565b62001b4e576040517f08c379a00000000000000000000000000000000000000000000000000000000081526004018080602001828103825260118152602001807f496e76616c69642076616c696461746f7200000000000000000000000000000081525060200191505060405180910390fd5b62001b5a878762002bd4565b62001bcd576040517f08c379a00000000000000000000000000000000000000000000000000000000081526004018080602001828103825260168152602001807f496e7465726e616c20757064617465206661696c65640000000000000000000081525060200191505060405180910390fd5b50505050505050565b6060600080548060200260200160405190810160405280929190818152602001828054801562001c5c57602002820191906000526020600020905b8160009054906101000a900473ffffffffffffffffffffffffffffffffffffffff1673ffffffffffffffffffffffffffffffffffffffff168152602001906001019080831162001c11575b5050505050905090565b6000808c8c8c604051602001808473ffffffffffffffffffffffffffffffffffffffff1673ffffffffffffffffffffffffffffffffffffffff1660601b81526014018373ffffffffffffffffffffffffffffffffffffffff1673ffffffffffffffffffffffffffffffffffffffff1660601b81526014018267ffffffffffffffff1667ffffffffffffffff1660c01b8152600801935050505060405160208183030381529060405280519060200120905062001e2a818b8b80806020026020016040519081016040528093929190818152602001838360200280828437600081840152601f19601f820116905080830192505050505050508a8a80806020026020016040519081016040528093929190818152602001838360200280828437600081840152601f19601f82011690508083019250505050505050898980806020026020016040519081016040528093929190818152602001838360200280828437600081840152601f19601f82011690508083019250505050505050888880806020026020016040519081016040528093929190818152602001838360200280828437600081840152601f19601f820116905080830192505050505050506200225f565b62001e9d576040517f08c379a000000000000000000000000000000000000000000000000000000000815260040180806020018281038252601d8152602001807f56616c696461746f7220766572696669636174696f6e206661696c656400000081525060200191505060405180910390fd5b600073ffffffffffffffffffffffffffffffffffffffff168c73ffffffffffffffffffffffffffffffffffffffff16141562001f2b578c73ffffffffffffffffffffffffffffffffffffffff166108fc8c67ffffffffffffffff169081150290604051600060405180830381858888f1935050505015801562001f24573d6000803e3d6000fd5b5062002198565b600560008d73ffffffffffffffffffffffffffffffffffffffff1673ffffffffffffffffffffffffffffffffffffffff16815260200190815260200160002060009054906101000a900460ff161562002054578b73ffffffffffffffffffffffffffffffffffffffff166340c10f198e8d6040518363ffffffff1660e01b8152600401808373ffffffffffffffffffffffffffffffffffffffff1673ffffffffffffffffffffffffffffffffffffffff1681526020018267ffffffffffffffff16815260200192505050602060405180830381600087803b1580156200201057600080fd5b505af115801562002025573d6000803e3d6000fd5b505050506040513d60208110156200203c57600080fd5b81019080805190602001909291905050505062002197565b8b73ffffffffffffffffffffffffffffffffffffffff1663a9059cbb8e8d6040518363ffffffff1660e01b8152600401808373ffffffffffffffffffffffffffffffffffffffff1673ffffffffffffffffffffffffffffffffffffffff1681526020018267ffffffffffffffff16815260200192505050602060405180830381600087803b158015620020e657600080fd5b505af1158015620020fb573d6000803e3d6000fd5b505050506040513d60208110156200211257600080fd5b810190808051906020019092919050505062002196576040517f08c379a00000000000000000000000000000000000000000000000000000000081526004018080602001828103825260198152602001807f45524320746f6b656e207472616e73666572206661696c65640000000000000081525060200191505060405180910390fd5b5b5b7f3e9fa5d7abb41e0d3d2b1d3c9506edae15840be03858226410fd3a70c6a915718d8d8d604051808473ffffffffffffffffffffffffffffffffffffffff1673ffffffffffffffffffffffffffffffffffffffff1681526020018373ffffffffffffffffffffffffffffffffffffffff1673ffffffffffffffffffffffffffffffffffffffff1681526020018267ffffffffffffffff1667ffffffffffffffff168152602001935050505060405180910390a160019150509b9a5050505050505050505050565b6000806000905060008090505b86518110156200251757600081111562002322578660018203815181106200229057fe5b6020026020010151878281518110620022a557fe5b60200260200101511162002321576040517f08c379a00000000000000000000000000000000000000000000000000000000081526004018080602001828103825260188152602001807f5369676e657273206172726179206e6f7420736f72746564000000000000000081525060200191505060405180910390fd5b5b60006001898884815181106200233457fe5b60200260200101518885815181106200234957fe5b60200260200101518886815181106200235e57fe5b602002602001015160405160008152602001604052604051808581526020018460ff1660ff1681526020018381526020018281526020019450505050506020604051602081039080840390855afa158015620023be573d6000803e3d6000fd5b5050506020604051035190506000888381518110620023d957fe5b602002602001015181548110620023ec57fe5b9060005260206000200160009054906101000a900473ffffffffffffffffffffffffffffffffffffffff1673ffffffffffffffffffffffffffffffffffffffff168173ffffffffffffffffffffffffffffffffffffffff1614620024b8576040517f08c379a00000000000000000000000000000000000000000000000000000000081526004018080602001828103825260198152602001807f496e76616c696420726563697069656e7420616464726573730000000000000081525060200191505060405180910390fd5b6001888381518110620024c757fe5b602002602001015181548110620024da57fe5b90600052602060002090600491828204019190066008029054906101000a900467ffffffffffffffff16830192505080806001019150506200226c565b5060028060009054906101000a900467ffffffffffffffff160267ffffffffffffffff166003820267ffffffffffffffff1611620025bd576040517f08c379a00000000000000000000000000000000000000000000000000000000081526004018080602001828103825260158152602001807f4e6f7420656e6f756768207369676e617475726573000000000000000000000081525060200191505060405180910390fd5b600191505095945050505050565b600260009054906101000a900467ffffffffffffffff1681565b60008181548110620025f357fe5b906000526020600020016000915054906101000a900473ffffffffffffffffffffffffffffffffffffffff1681565b6000828260405160200180838051906020019060200280838360005b838110156200265b5780820151818401526020810190506200263e565b50505050905001828051906020019060200280838360005b838110156200269057808201518184015260208101905062002673565b505050509050019250505060405160208183030381529060405280519060200120905092915050565b6000803414620027d057600073ffffffffffffffffffffffffffffffffffffffff168373ffffffffffffffffffffffffffffffffffffffff16146200274a576040517f08c379a000000000000000000000000000000000000000000000000000000000815260040180806020018281038252602881526020018062004dce6028913960400191505060405180910390fd5b8167ffffffffffffffff163414620027ca576040517f08c379a00000000000000000000000000000000000000000000000000000000081526004018080602001828103825260138152602001807f496e76616c6964206c6f636b20616d6f756e740000000000000000000000000081525060200191505060405180910390fd5b62002a4c565b600560008473ffffffffffffffffffffffffffffffffffffffff1673ffffffffffffffffffffffffffffffffffffffff16815260200190815260200160002060009054906101000a900460ff1615620028d4578273ffffffffffffffffffffffffffffffffffffffff16639dc29fac33846040518363ffffffff1660e01b8152600401808373ffffffffffffffffffffffffffffffffffffffff1673ffffffffffffffffffffffffffffffffffffffff1681526020018267ffffffffffffffff16815260200192505050600060405180830381600087803b158015620028b557600080fd5b505af1158015620028ca573d6000803e3d6000fd5b5050505062002a4b565b8273ffffffffffffffffffffffffffffffffffffffff166323b872dd3330856040518463ffffffff1660e01b8152600401808473ffffffffffffffffffffffffffffffffffffffff1673ffffffffffffffffffffffffffffffffffffffff1681526020018373ffffffffffffffffffffffffffffffffffffffff1673ffffffffffffffffffffffffffffffffffffffff1681526020018267ffffffffffffffff1681526020019350505050602060405180830381600087803b1580156200299a57600080fd5b505af1158015620029af573d6000803e3d6000fd5b505050506040513d6020811015620029c657600080fd5b810190808051906020019092919050505062002a4a576040517f08c379a000000000000000000000000000000000000000000000000000000000815260040180806020018281038252600f8152602001807f5472616e73666572206661696c6564000000000000000000000000000000000081525060200191505060405180910390fd5b5b5b7f1452e1943ee618e4f2e09a5f6810ab2083872125b0fa9224593ebf70fb9aef4a84848460405180806020018473ffffffffffffffffffffffffffffffffffffffff1673ffffffffffffffffffffffffffffffffffffffff1681526020018367ffffffffffffffff1667ffffffffffffffff168152602001828103825285818151815260200191508051906020019080838360005b8381101562002afe57808201518184015260208101905062002ae1565b50505050905090810190601f16801562002b2c5780820380516001836020036101000a031916815260200191505b5094505050505060405180910390a1600190509392505050565b6060600180548060200260200160405190810160405280929190818152602001828054801562002bca57602002820191906000526020600020906000905b82829054906101000a900467ffffffffffffffff1667ffffffffffffffff168152602001906008019060208260070104928301926001038202915080841162002b845790505b5050505050905090565b6000825160405190808252806020026020018201604052801562002c075781602001602082028038833980820191505090505b506000908051906020019062002c1f92919062002f30565b50815160405190808252806020026020018201604052801562002c515781602001602082028038833980820191505090505b506001908051906020019062002c6992919062002fbf565b506000600260006101000a81548167ffffffffffffffff021916908367ffffffffffffffff16021790555060008090505b835181101562002dd15783818151811062002cb157fe5b60200260200101516000828154811062002cc757fe5b9060005260206000200160006101000a81548173ffffffffffffffffffffffffffffffffffffffff021916908373ffffffffffffffffffffffffffffffffffffffff16021790555082818151811062002d1c57fe5b60200260200101516001828154811062002d3257fe5b90600052602060002090600491828204019190066008026101000a81548167ffffffffffffffff021916908367ffffffffffffffff16021790555082818151811062002d7a57fe5b6020026020010151600260008282829054906101000a900467ffffffffffffffff160192506101000a81548167ffffffffffffffff021916908367ffffffffffffffff160217905550808060010191505062002c9a565b5060006003549050807f41e3e7fbffa8e8d5523f548e6d8f0130b20aa4615fe6d442dae2db7172c84e4a60006001604051808060200180602001838103835285818154815260200191508054801562002e8057602002820191906000526020600020905b8160009054906101000a900473ffffffffffffffffffffffffffffffffffffffff1673ffffffffffffffffffffffffffffffffffffffff168152602001906001019080831162002e35575b5050838103825284818154815260200191508054801562002ef557602002820191906000526020600020906000905b82829054906101000a900467ffffffffffffffff1667ffffffffffffffff168152602001906008019060208260070104928301926001038202915080841162002eaf5790505b505094505050505060405180910390a2600360008154809291906001019190505550600191505092915050565b611ccb806200310383390190565b82805482825590600052602060002090810192821562002fac579160200282015b8281111562002fab5782518260006101000a81548173ffffffffffffffffffffffffffffffffffffffff021916908373ffffffffffffffffffffffffffffffffffffffff1602179055509160200191906001019062002f51565b5b50905062002fbb919062003082565b5090565b828054828255906000526020600020906003016004900481019282156200306f5791602002820160005b838211156200303757835183826101000a81548167ffffffffffffffff021916908367ffffffffffffffff160217905550926020019260080160208160070104928301926001030262002fe9565b80156200306d5782816101000a81549067ffffffffffffffff021916905560080160208160070104928301926001030262003037565b505b5090506200307e9190620030c8565b5090565b620030c591905b80821115620030c157600081816101000a81549073ffffffffffffffffffffffffffffffffffffffff02191690555060010162003089565b5090565b90565b620030ff91905b80821115620030fb57600081816101000a81549067ffffffffffffffff021916905550600101620030cf565b5090565b9056fe60806040523480156200001157600080fd5b5062000032620000266200007960201b60201c565b6200008160201b60201c565b33600460006101000a81548173ffffffffffffffffffffffffffffffffffffffff021916908373ffffffffffffffffffffffffffffffffffffffff160217905550620002a6565b600033905090565b6200009c816003620000e260201b620016251790919060201c565b8073ffffffffffffffffffffffffffffffffffffffff167f6ae172837ea30b801fbfcdd4108aa1d5bf8ff775444fd70256b44e6bf3dfc3f660405160405180910390a250565b620000f48282620001c660201b60201c565b1562000168576040517f08c379a000000000000000000000000000000000000000000000000000000000815260040180806020018281038252601f8152602001807f526f6c65733a206163636f756e7420616c72656164792068617320726f6c650081525060200191505060405180910390fd5b60018260000160008373ffffffffffffffffffffffffffffffffffffffff1673ffffffffffffffffffffffffffffffffffffffff16815260200190815260200160002060006101000a81548160ff0219169083151502179055505050565b60008073ffffffffffffffffffffffffffffffffffffffff168273ffffffffffffffffffffffffffffffffffffffff1614156200024f576040517f08c379a000000000000000000000000000000000000000000000000000000000815260040180806020018281038252602281526020018062001ca96022913960400191505060405180910390fd5b8260000160008373ffffffffffffffffffffffffffffffffffffffff1673ffffffffffffffffffffffffffffffffffffffff16815260200190815260200160002060009054906101000a900460ff16905092915050565b6119f380620002b66000396000f3fe608060405234801561001057600080fd5b50600436106100ea5760003560e01c8063986502751161008c578063a9059cbb11610066578063a9059cbb1461041f578063aa271e1a14610485578063dd62ed3e146104e1578063f77c479114610559576100ea565b806398650275146103615780639dc29fac1461036b578063a457c2d7146103b9576100ea565b806339509351116100c857806339509351146101f957806340c10f191461025f57806370a08231146102c5578063983b2d561461031d576100ea565b8063095ea7b3146100ef57806318160ddd1461015557806323b872dd14610173575b600080fd5b61013b6004803603604081101561010557600080fd5b81019080803573ffffffffffffffffffffffffffffffffffffffff169060200190929190803590602001909291905050506105a3565b604051808215151515815260200191505060405180910390f35b61015d6105c1565b6040518082815260200191505060405180910390f35b6101df6004803603606081101561018957600080fd5b81019080803573ffffffffffffffffffffffffffffffffffffffff169060200190929190803573ffffffffffffffffffffffffffffffffffffffff169060200190929190803590602001909291905050506105cb565b604051808215151515815260200191505060405180910390f35b6102456004803603604081101561020f57600080fd5b81019080803573ffffffffffffffffffffffffffffffffffffffff169060200190929190803590602001909291905050506106a4565b604051808215151515815260200191505060405180910390f35b6102ab6004803603604081101561027557600080fd5b81019080803573ffffffffffffffffffffffffffffffffffffffff16906020019092919080359060200190929190505050610757565b604051808215151515815260200191505060405180910390f35b610307600480360360208110156102db57600080fd5b81019080803573ffffffffffffffffffffffffffffffffffffffff1690602001909291905050506107d2565b6040518082815260200191505060405180910390f35b61035f6004803603602081101561033357600080fd5b81019080803573ffffffffffffffffffffffffffffffffffffffff16906020019092919050505061081a565b005b61036961088b565b005b6103b76004803603604081101561038157600080fd5b81019080803573ffffffffffffffffffffffffffffffffffffffff1690602001909291908035906020019092919050505061089d565b005b610405600480360360408110156103cf57600080fd5b81019080803573ffffffffffffffffffffffffffffffffffffffff1690602001909291908035906020019092919050505061096e565b604051808215151515815260200191505060405180910390f35b61046b6004803603604081101561043557600080fd5b81019080803573ffffffffffffffffffffffffffffffffffffffff16906020019092919080359060200190929190505050610a3b565b604051808215151515815260200191505060405180910390f35b6104c76004803603602081101561049b57600080fd5b81019080803573ffffffffffffffffffffffffffffffffffffffff169060200190929190505050610a59565b604051808215151515815260200191505060405180910390f35b610543600480360360408110156104f757600080fd5b81019080803573ffffffffffffffffffffffffffffffffffffffff169060200190929190803573ffffffffffffffffffffffffffffffffffffffff169060200190929190505050610a76565b6040518082815260200191505060405180910390f35b610561610afd565b604051808273ffffffffffffffffffffffffffffffffffffffff1673ffffffffffffffffffffffffffffffffffffffff16815260200191505060405180910390f35b60006105b76105b0610b23565b8484610b2b565b6001905092915050565b6000600254905090565b60006105d8848484610d22565b610699846105e4610b23565b610694856040518060600160405280602881526020016118e660289139600160008b73ffffffffffffffffffffffffffffffffffffffff1673ffffffffffffffffffffffffffffffffffffffff168152602001908152602001600020600061064a610b23565b73ffffffffffffffffffffffffffffffffffffffff1673ffffffffffffffffffffffffffffffffffffffff16815260200190815260200160002054610fd89092919063ffffffff16565b610b2b565b600190509392505050565b600061074d6106b1610b23565b8461074885600160006106c2610b23565b73ffffffffffffffffffffffffffffffffffffffff1673ffffffffffffffffffffffffffffffffffffffff16815260200190815260200160002060008973ffffffffffffffffffffffffffffffffffffffff1673ffffffffffffffffffffffffffffffffffffffff1681526020019081526020016000205461109890919063ffffffff16565b610b2b565b6001905092915050565b6000610769610764610b23565b610a59565b6107be576040517f08c379a00000000000000000000000000000000000000000000000000000000081526004018080602001828103825260308152602001806118956030913960400191505060405180910390fd5b6107c88383611120565b6001905092915050565b60008060008373ffffffffffffffffffffffffffffffffffffffff1673ffffffffffffffffffffffffffffffffffffffff168152602001908152602001600020549050919050565b61082a610825610b23565b610a59565b61087f576040517f08c379a00000000000000000000000000000000000000000000000000000000081526004018080602001828103825260308152602001806118956030913960400191505060405180910390fd5b610888816112db565b50565b61089b610896610b23565b611335565b565b600460009054906101000a900473ffffffffffffffffffffffffffffffffffffffff1673ffffffffffffffffffffffffffffffffffffffff163373ffffffffffffffffffffffffffffffffffffffff1614610960576040517f08c379a00000000000000000000000000000000000000000000000000000000081526004018080602001828103825260208152602001807f43616e206f6e6c792062652063616c6c656420627920636f6e74726f6c6c657281525060200191505060405180910390fd5b61096a828261138f565b5050565b6000610a3161097b610b23565b84610a2c8560405180606001604052806025815260200161199a60259139600160006109a5610b23565b73ffffffffffffffffffffffffffffffffffffffff1673ffffffffffffffffffffffffffffffffffffffff16815260200190815260200160002060008a73ffffffffffffffffffffffffffffffffffffffff1673ffffffffffffffffffffffffffffffffffffffff16815260200190815260200160002054610fd89092919063ffffffff16565b610b2b565b6001905092915050565b6000610a4f610a48610b23565b8484610d22565b6001905092915050565b6000610a6f82600361154790919063ffffffff16565b9050919050565b6000600160008473ffffffffffffffffffffffffffffffffffffffff1673ffffffffffffffffffffffffffffffffffffffff16815260200190815260200160002060008373ffffffffffffffffffffffffffffffffffffffff1673ffffffffffffffffffffffffffffffffffffffff16815260200190815260200160002054905092915050565b600460009054906101000a900473ffffffffffffffffffffffffffffffffffffffff1681565b600033905090565b600073ffffffffffffffffffffffffffffffffffffffff168373ffffffffffffffffffffffffffffffffffffffff161415610bb1576040517f08c379a00000000000000000000000000000000000000000000000000000000081526004018080602001828103825260248152602001806119766024913960400191505060405180910390fd5b600073ffffffffffffffffffffffffffffffffffffffff168273ffffffffffffffffffffffffffffffffffffffff161415610c37576040517f08c379a000000000000000000000000000000000000000000000000000000000815260040180806020018281038252602281526020018061184d6022913960400191505060405180910390fd5b80600160008573ffffffffffffffffffffffffffffffffffffffff1673ffffffffffffffffffffffffffffffffffffffff16815260200190815260200160002060008473ffffffffffffffffffffffffffffffffffffffff1673ffffffffffffffffffffffffffffffffffffffff168152602001908152602001600020819055508173ffffffffffffffffffffffffffffffffffffffff168373ffffffffffffffffffffffffffffffffffffffff167f8c5be1e5ebec7d5bd14f71427d1e84f3dd0314c0f7b2291e5b200ac8c7c3b925836040518082815260200191505060405180910390a3505050565b600073ffffffffffffffffffffffffffffffffffffffff168373ffffffffffffffffffffffffffffffffffffffff161415610da8576040517f08c379a00000000000000000000000000000000000000000000000000000000081526004018080602001828103825260258152602001806119516025913960400191505060405180910390fd5b600073ffffffffffffffffffffffffffffffffffffffff168273ffffffffffffffffffffffffffffffffffffffff161415610e2e576040517f08c379a00000000000000000000000000000000000000000000000000000000081526004018080602001828103825260238152602001806118086023913960400191505060405180910390fd5b610e998160405180606001604052806026815260200161186f602691396000808773ffffffffffffffffffffffffffffffffffffffff1673ffffffffffffffffffffffffffffffffffffffff16815260200190815260200160002054610fd89092919063ffffffff16565b6000808573ffffffffffffffffffffffffffffffffffffffff1673ffffffffffffffffffffffffffffffffffffffff16815260200190815260200160002081905550610f2c816000808573ffffffffffffffffffffffffffffffffffffffff1673ffffffffffffffffffffffffffffffffffffffff1681526020019081526020016000205461109890919063ffffffff16565b6000808473ffffffffffffffffffffffffffffffffffffffff1673ffffffffffffffffffffffffffffffffffffffff168152602001908152602001600020819055508173ffffffffffffffffffffffffffffffffffffffff168373ffffffffffffffffffffffffffffffffffffffff167fddf252ad1be2c89b69c2b068fc378daa952ba7f163c4a11628f55a4df523b3ef836040518082815260200191505060405180910390a3505050565b6000838311158290611085576040517f08c379a00000000000000000000000000000000000000000000000000000000081526004018080602001828103825283818151815260200191508051906020019080838360005b8381101561104a57808201518184015260208101905061102f565b50505050905090810190601f1680156110775780820380516001836020036101000a031916815260200191505b509250505060405180910390fd5b5060008385039050809150509392505050565b600080828401905083811015611116576040517f08c379a000000000000000000000000000000000000000000000000000000000815260040180806020018281038252601b8152602001807f536166654d6174683a206164646974696f6e206f766572666c6f77000000000081525060200191505060405180910390fd5b8091505092915050565b600073ffffffffffffffffffffffffffffffffffffffff168273ffffffffffffffffffffffffffffffffffffffff1614156111c3576040517f08c379a000000000000000000000000000000000000000000000000000000000815260040180806020018281038252601f8152602001807f45524332303a206d696e7420746f20746865207a65726f20616464726573730081525060200191505060405180910390fd5b6111d88160025461109890919063ffffffff16565b60028190555061122f816000808573ffffffffffffffffffffffffffffffffffffffff1673ffffffffffffffffffffffffffffffffffffffff1681526020019081526020016000205461109890919063ffffffff16565b6000808473ffffffffffffffffffffffffffffffffffffffff1673ffffffffffffffffffffffffffffffffffffffff168152602001908152602001600020819055508173ffffffffffffffffffffffffffffffffffffffff16600073ffffffffffffffffffffffffffffffffffffffff167fddf252ad1be2c89b69c2b068fc378daa952ba7f163c4a11628f55a4df523b3ef836040518082815260200191505060405180910390a35050565b6112ef81600361162590919063ffffffff16565b8073ffffffffffffffffffffffffffffffffffffffff167f6ae172837ea30b801fbfcdd4108aa1d5bf8ff775444fd70256b44e6bf3dfc3f660405160405180910390a250565b61134981600361170090919063ffffffff16565b8073ffffffffffffffffffffffffffffffffffffffff167fe94479a9f7e1952cc78f2d6baab678adc1b772d936c6583def489e524cb6669260405160405180910390a250565b600073ffffffffffffffffffffffffffffffffffffffff168273ffffffffffffffffffffffffffffffffffffffff161415611415576040517f08c379a00000000000000000000000000000000000000000000000000000000081526004018080602001828103825260218152602001806119306021913960400191505060405180910390fd5b6114808160405180606001604052806022815260200161182b602291396000808673ffffffffffffffffffffffffffffffffffffffff1673ffffffffffffffffffffffffffffffffffffffff16815260200190815260200160002054610fd89092919063ffffffff16565b6000808473ffffffffffffffffffffffffffffffffffffffff1673ffffffffffffffffffffffffffffffffffffffff168152602001908152602001600020819055506114d7816002546117bd90919063ffffffff16565b600281905550600073ffffffffffffffffffffffffffffffffffffffff168273ffffffffffffffffffffffffffffffffffffffff167fddf252ad1be2c89b69c2b068fc378daa952ba7f163c4a11628f55a4df523b3ef836040518082815260200191505060405180910390a35050565b60008073ffffffffffffffffffffffffffffffffffffffff168273ffffffffffffffffffffffffffffffffffffffff1614156115ce576040517f08c379a000000000000000000000000000000000000000000000000000000000815260040180806020018281038252602281526020018061190e6022913960400191505060405180910390fd5b8260000160008373ffffffffffffffffffffffffffffffffffffffff1673ffffffffffffffffffffffffffffffffffffffff16815260200190815260200160002060009054906101000a900460ff16905092915050565b61162f8282611547565b156116a2576040517f08c379a000000000000000000000000000000000000000000000000000000000815260040180806020018281038252601f8152602001807f526f6c65733a206163636f756e7420616c72656164792068617320726f6c650081525060200191505060405180910390fd5b60018260000160008373ffffffffffffffffffffffffffffffffffffffff1673ffffffffffffffffffffffffffffffffffffffff16815260200190815260200160002060006101000a81548160ff0219169083151502179055505050565b61170a8282611547565b61175f576040517f08c379a00000000000000000000000000000000000000000000000000000000081526004018080602001828103825260218152602001806118c56021913960400191505060405180910390fd5b60008260000160008373ffffffffffffffffffffffffffffffffffffffff1673ffffffffffffffffffffffffffffffffffffffff16815260200190815260200160002060006101000a81548160ff0219169083151502179055505050565b60006117ff83836040518060400160405280601e81526020017f536166654d6174683a207375627472616374696f6e206f766572666c6f770000815250610fd8565b90509291505056fe45524332303a207472616e7366657220746f20746865207a65726f206164647265737345524332303a206275726e20616d6f756e7420657863656564732062616c616e636545524332303a20617070726f766520746f20746865207a65726f206164647265737345524332303a207472616e7366657220616d6f756e7420657863656564732062616c616e63654d696e746572526f6c653a2063616c6c657220646f6573206e6f74206861766520746865204d696e74657220726f6c65526f6c65733a206163636f756e7420646f6573206e6f74206861766520726f6c6545524332303a207472616e7366657220616d6f756e74206578636565647320616c6c6f77616e6365526f6c65733a206163636f756e7420697320746865207a65726f206164647265737345524332303a206275726e2066726f6d20746865207a65726f206164647265737345524332303a207472616e736665722066726f6d20746865207a65726f206164647265737345524332303a20617070726f76652066726f6d20746865207a65726f206164647265737345524332303a2064656372656173656420616c6c6f77616e63652062656c6f77207a65726fa265627a7a72315820583fa9c6be5de3bcbc672299db33b65ebbfaf757e44c5f5c7dfc564c6057b04064736f6c63430005110032526f6c65733a206163636f756e7420697320746865207a65726f206164647265737343616e206f6e6c792073656e642063757272656e637920746f20746865207a65726f20746f6b656e456467657761726520455243323020746f6b656e20776974682074686973206e616d6520616c726561647920657869737473a265627a7a723158201606d1a49b8c0065abf9a595b8954b62d99e3d7bb7e77e998aba2595c444433e64736f6c63430005110032",
  "source": "pragma solidity ^0.5.0;\n\nimport \"./EdgewareERC20.sol\";\nimport \"./ValidatorSet.sol\";\nimport \"../node_modules/openzeppelin-solidity/contracts/token/ERC20/ERC20.sol\";\n//import \"https://github.com/OpenZeppelin/openzeppelin-contracts/blob/master/contracts/token/ERC20/ERC20.sol\";\ncontract Bridge is ValidatorSet {\n\n    mapping (string => address) edgewareTokens;\n    mapping (address => bool) edgewareTokenAddresses;\n\n    /* Events  */\n    event NewEdgewareERC20(string name, address tokenAddress);\n    event Lock(bytes to, address token, uint64 value);\n    event Unlock(address to, address token, uint64 value);\n\n    constructor(address[] memory initAddress, uint64[] memory initPowers)\n        public\n        ValidatorSet(initAddress, initPowers) {\n    }\n\n    /* Functions */\n\n    function hashNewEdgewareERC20(string memory name, uint decimals) public pure returns (bytes32 hash) {\n      return keccak256(abi.encodePacked(name, decimals));\n    }\n\n    function hashUnlock(address to, address token, uint64 amount) public pure returns (bytes32 hash) {\n      return keccak256(abi.encodePacked(to, token, amount));\n    }\n\n    function getEdgewareTokenAddress(string memory name) public view returns (address addr) {\n      return edgewareTokens[name];\n    }\n\n\n    function isEdgewareTokenAddress(address addr) public view returns (bool isCosmosAddr) {\n      return edgewareTokenAddresses[addr];\n    }\n\n    /**\n     * @dev             Locks received funds to the consensus of the peg zone\n     * @param to        bytes representation of destination address\n     * @param amount    value of transference\n     * @param tokenAddr token address in origin chain (0x0 if Ethereum, Cosmos for other values)\n     */\n    function lock(bytes memory to, address tokenAddr, uint64 amount) public payable returns (bool) {\n        if (msg.value != 0) {\n          require(tokenAddr == address(0), \"Can only send currency to the zero token\");\n          require(msg.value == amount, \"Invalid lock amount\");\n        } else if (edgewareTokenAddresses[tokenAddr]) {\n          EdgewareERC20(tokenAddr).burn(msg.sender, amount);\n        } else {\n          require(ERC20(tokenAddr).transferFrom(msg.sender, address(this), amount), \"Transfer failed\");\n        }\n        emit Lock(to, tokenAddr, amount);\n        return true;\n    }\n\n    // Unlocks Ethereum tokens according to the information from the pegzone. Called by the relayers.\n    /**\n     * @param to          bytes representation of destination address\n     * @param amount      value of transference\n     * @param token       token address in origin chain (0x0 if Ethereum, Cosmos for other values)\n     * @ param chain      bytes respresentation of the destination chain (not used in MVP, for incentivization of relayers)\n     * @param signers     indexes of each validator\n     * @param v           array of recoverys id\n     * @param r           array of outputs of ECDSA signature\n     * @param s           array of outputs of ECDSA signature\n     */\n    function unlock(address payable to, address token, uint64 amount, uint[] calldata signers, uint8[] calldata v, bytes32[] calldata r, bytes32[] calldata s) external returns (bool) {\n        bytes32 hashData = keccak256(abi.encodePacked(to, token, amount));\n        require(ValidatorSet.verifyValidators(hashData, signers, v, r, s), \"Validator verification failed\");\n        if (token == address(0)) {\n          to.transfer(amount);\n        } else if (edgewareTokenAddresses[token]) {\n          EdgewareERC20(token).mint(to, amount);\n        } else {\n          require(ERC20(token).transfer(to, amount), \"ERC token transfer failed\");\n        }\n        emit Unlock(to, token, amount);\n        return true;\n    }\n\n    function newEdgewareERC20(string calldata name, uint decimals, uint[] calldata signers, uint8[] calldata v, bytes32[] calldata r, bytes32[] calldata s) external returns (address addr) {\n        require(edgewareTokens[name] == address(0), \"Edgeware ERC20 token with this name already exists\");\n\n        bytes32 hashData = keccak256(abi.encodePacked(name, decimals));\n        require(ValidatorSet.verifyValidators(hashData, signers, v, r, s), \"Validator verification failed\");\n\n        EdgewareERC20 newToken = new EdgewareERC20();\n\n        edgewareTokens[name] = address(newToken);\n        edgewareTokenAddresses[address(newToken)] = true;\n\n        emit NewEdgewareERC20(name, address(newToken));\n        return address(newToken);\n    }\n}\n",
  "sourcePath": "/home/dataexim/Desktop/Projects/edgeth-bridge/contracts/Bridge.sol",
  "compiler": {
    "name": "solc",
    "version": "0.5.17+commit.d19bba13.Emscripten.clang"
  },
  "schemaVersion": "3.4.1",
  "updatedAt": "2022-04-26T12:50:54.344Z",
  "networkType": "ethereum",
  "devdoc": {
    "methods": {
      "lock(bytes,address,uint64)": {
        "details": "Locks received funds to the consensus of the peg zone",
        "params": {
          "amount": "value of transference",
          "to": "bytes representation of destination address",
          "tokenAddr": "token address in origin chain (0x0 if Ethereum, Cosmos for other values)"
        }
      },
      "unlock(address,address,uint64,uint256[],uint8[],bytes32[],bytes32[])": {
        "params": {
          "amount": "value of transference",
          "r": "array of outputs of ECDSA signature",
          "s": "array of outputs of ECDSA signature",
          "signers": "indexes of each validator",
          "to": "bytes representation of destination address",
          "token": "token address in origin chain (0x0 if Ethereum, Cosmos for other values) param chain      bytes respresentation of the destination chain (not used in MVP, for incentivization of relayers)",
          "v": "array of recoverys id"
        }
      },
      "update(address[],uint64[],uint256[],uint8[],bytes32[],bytes32[])": {
        "details": "Updates validator set. Called by the relayers.",
        "params": {
          "newAddress": "new validators addresses",
          "newPowers": "power of each validator",
          "r": "output of ECDSA signature. Used to compute ecrecover",
          "s": "output of ECDSA signature.  Used to compute ecrecover",
          "signers": "indexes of each signer validator",
          "v": "recovery id. Used to compute ecrecover"
        }
      }
    }
  },
  "userdoc": {
    "methods": {}
  }
}