{
  "contractName": "ValidatorSet",
  "abi": [
    {
      "inputs": [
        {
          "internalType": "address[]",
          "name": "initAddress",
          "type": "address[]"
        },
        {
          "internalType": "uint64[]",
          "name": "initPowers",
          "type": "uint64[]"
        }
      ],
      "payable": false,
      "stateMutability": "nonpayable",
      "type": "constructor"
    },
    {
      "anonymous": false,
      "inputs": [
        {
          "indexed": false,
          "internalType": "address[]",
          "name": "newAddresses",
          "type": "address[]"
        },
        {
          "indexed": false,
          "internalType": "uint64[]",
          "name": "newPowers",
          "type": "uint64[]"
        },
        {
          "indexed": true,
          "internalType": "uint256",
          "name": "seq",
          "type": "uint256"
        }
      ],
      "name": "Update",
      "type": "event"
    },
    {
      "constant": true,
      "inputs": [
        {
          "internalType": "uint256",
          "name": "",
          "type": "uint256"
        }
      ],
      "name": "addresses",
      "outputs": [
        {
          "internalType": "address",
          "name": "",
          "type": "address"
        }
      ],
      "payable": false,
      "stateMutability": "view",
      "type": "function"
    },
    {
      "constant": true,
      "inputs": [
        {
          "internalType": "uint256",
          "name": "",
          "type": "uint256"
        }
      ],
      "name": "powers",
      "outputs": [
        {
          "internalType": "uint64",
          "name": "",
          "type": "uint64"
        }
      ],
      "payable": false,
      "stateMutability": "view",
      "type": "function"
    },
    {
      "constant": true,
      "inputs": [],
      "name": "totalPower",
      "outputs": [
        {
          "internalType": "uint64",
          "name": "",
          "type": "uint64"
        }
      ],
      "payable": false,
      "stateMutability": "view",
      "type": "function"
    },
    {
      "constant": true,
      "inputs": [],
      "name": "getAddresses",
      "outputs": [
        {
          "internalType": "address[]",
          "name": "",
          "type": "address[]"
        }
      ],
      "payable": false,
      "stateMutability": "view",
      "type": "function"
    },
    {
      "constant": true,
      "inputs": [],
      "name": "getPowers",
      "outputs": [
        {
          "internalType": "uint64[]",
          "name": "",
          "type": "uint64[]"
        }
      ],
      "payable": false,
      "stateMutability": "view",
      "type": "function"
    },
    {
      "constant": true,
      "inputs": [],
      "name": "getTotalPower",
      "outputs": [
        {
          "internalType": "uint64",
          "name": "",
          "type": "uint64"
        }
      ],
      "payable": false,
      "stateMutability": "view",
      "type": "function"
    },
    {
      "constant": true,
      "inputs": [
        {
          "internalType": "address[]",
          "name": "addressesArr",
          "type": "address[]"
        },
        {
          "internalType": "uint64[]",
          "name": "powersArr",
          "type": "uint64[]"
        }
      ],
      "name": "hashValidatorArrays",
      "outputs": [
        {
          "internalType": "bytes32",
          "name": "hash",
          "type": "bytes32"
        }
      ],
      "payable": false,
      "stateMutability": "pure",
      "type": "function"
    },
    {
      "constant": true,
      "inputs": [
        {
          "internalType": "bytes32",
          "name": "hash",
          "type": "bytes32"
        },
        {
          "internalType": "uint256[]",
          "name": "signers",
          "type": "uint256[]"
        },
        {
          "internalType": "uint8[]",
          "name": "v",
          "type": "uint8[]"
        },
        {
          "internalType": "bytes32[]",
          "name": "r",
          "type": "bytes32[]"
        },
        {
          "internalType": "bytes32[]",
          "name": "s",
          "type": "bytes32[]"
        }
      ],
      "name": "verifyValidators",
      "outputs": [
        {
          "internalType": "bool",
          "name": "",
          "type": "bool"
        }
      ],
      "payable": false,
      "stateMutability": "view",
      "type": "function"
    },
    {
      "constant": false,
      "inputs": [
        {
          "internalType": "address[]",
          "name": "newAddress",
          "type": "address[]"
        },
        {
          "internalType": "uint64[]",
          "name": "newPowers",
          "type": "uint64[]"
        },
        {
          "internalType": "uint256[]",
          "name": "signers",
          "type": "uint256[]"
        },
        {
          "internalType": "uint8[]",
          "name": "v",
          "type": "uint8[]"
        },
        {
          "internalType": "bytes32[]",
          "name": "r",
          "type": "bytes32[]"
        },
        {
          "internalType": "bytes32[]",
          "name": "s",
          "type": "bytes32[]"
        }
      ],
      "name": "update",
      "outputs": [],
      "payable": false,
      "stateMutability": "nonpayable",
      "type": "function"
    }
  ],
  "bytecode": "0x608060405260006003553480156200001657600080fd5b5060405162001d4638038062001d46833981810160405260408110156200003c57600080fd5b81019080805160405193929190846401000000008211156200005d57600080fd5b838201915060208201858111156200007457600080fd5b82518660208202830111640100000000821117156200009257600080fd5b8083526020830192505050908051906020019060200280838360005b83811015620000cb578082015181840152602081019050620000ae565b5050505090500160405260200180516040519392919084640100000000821115620000f557600080fd5b838201915060208201858111156200010c57600080fd5b82518660208202830111640100000000821117156200012a57600080fd5b8083526020830192505050908051906020019060200280838360005b838110156200016357808201518184015260208101905062000146565b505050509050016040525050506200018282826200018b60201b60201c565b505050620006ab565b60008251604051908082528060200260200182016040528015620001be5781602001602082028038833980820191505090505b5060009080519060200190620001d6929190620004d9565b508151604051908082528060200260200182016040528015620002085781602001602082028038833980820191505090505b50600190805190602001906200022092919062000568565b506000600260006101000a81548167ffffffffffffffff021916908367ffffffffffffffff16021790555060008090505b835181101562000388578381815181106200026857fe5b6020026020010151600082815481106200027e57fe5b9060005260206000200160006101000a81548173ffffffffffffffffffffffffffffffffffffffff021916908373ffffffffffffffffffffffffffffffffffffffff160217905550828181518110620002d357fe5b602002602001015160018281548110620002e957fe5b90600052602060002090600491828204019190066008026101000a81548167ffffffffffffffff021916908367ffffffffffffffff1602179055508281815181106200033157fe5b6020026020010151600260008282829054906101000a900467ffffffffffffffff160192506101000a81548167ffffffffffffffff021916908367ffffffffffffffff160217905550808060010191505062000251565b5060006003549050807f41e3e7fbffa8e8d5523f548e6d8f0130b20aa4615fe6d442dae2db7172c84e4a6000600160405180806020018060200183810383528581815481526020019150805480156200043757602002820191906000526020600020905b8160009054906101000a900473ffffffffffffffffffffffffffffffffffffffff1673ffffffffffffffffffffffffffffffffffffffff1681526020019060010190808311620003ec575b50508381038252848181548152602001915080548015620004ac57602002820191906000526020600020906000905b82829054906101000a900467ffffffffffffffff1667ffffffffffffffff1681526020019060080190602082600701049283019260010382029150808411620004665790505b505094505050505060405180910390a2600360008154809291906001019190505550600191505092915050565b82805482825590600052602060002090810192821562000555579160200282015b82811115620005545782518260006101000a81548173ffffffffffffffffffffffffffffffffffffffff021916908373ffffffffffffffffffffffffffffffffffffffff16021790555091602001919060010190620004fa565b5b5090506200056491906200062b565b5090565b82805482825590600052602060002090600301600490048101928215620006185791602002820160005b83821115620005e057835183826101000a81548167ffffffffffffffff021916908367ffffffffffffffff160217905550926020019260080160208160070104928301926001030262000592565b8015620006165782816101000a81549067ffffffffffffffff0219169055600801602081600701049283019260010302620005e0565b505b50905062000627919062000671565b5090565b6200066e91905b808211156200066a57600081816101000a81549073ffffffffffffffffffffffffffffffffffffffff02191690555060010162000632565b5090565b90565b620006a891905b80821115620006a457600081816101000a81549067ffffffffffffffff02191690555060010162000678565b5090565b90565b61168b80620006bb6000396000f3fe608060405234801561001057600080fd5b50600436106100935760003560e01c8063c2961cd711610066578063c2961cd71461051b578063db3ad22c146107b1578063edf26d9b146107e3578063f05554b314610851578063ff13a1ac146109b157610093565b806340c1bfab1461009857806353976a26146100ee57806382de8d0a14610120578063a39fac12146104bc575b600080fd5b6100c4600480360360208110156100ae57600080fd5b8101908080359060200190929190505050610a10565b604051808267ffffffffffffffff1667ffffffffffffffff16815260200191505060405180910390f35b6100f6610a4b565b604051808267ffffffffffffffff1667ffffffffffffffff16815260200191505060405180910390f35b6104ba600480360360c081101561013657600080fd5b810190808035906020019064010000000081111561015357600080fd5b82018360208201111561016557600080fd5b8035906020019184602083028401116401000000008311171561018757600080fd5b919080806020026020016040519081016040528093929190818152602001838360200280828437600081840152601f19601f820116905080830192505050505050509192919290803590602001906401000000008111156101e757600080fd5b8201836020820111156101f957600080fd5b8035906020019184602083028401116401000000008311171561021b57600080fd5b919080806020026020016040519081016040528093929190818152602001838360200280828437600081840152601f19601f8201169050808301925050505050505091929192908035906020019064010000000081111561027b57600080fd5b82018360208201111561028d57600080fd5b803590602001918460208302840111640100000000831117156102af57600080fd5b919080806020026020016040519081016040528093929190818152602001838360200280828437600081840152601f19601f8201169050808301925050505050505091929192908035906020019064010000000081111561030f57600080fd5b82018360208201111561032157600080fd5b8035906020019184602083028401116401000000008311171561034357600080fd5b919080806020026020016040519081016040528093929190818152602001838360200280828437600081840152601f19601f820116905080830192505050505050509192919290803590602001906401000000008111156103a357600080fd5b8201836020820111156103b557600080fd5b803590602001918460208302840111640100000000831117156103d757600080fd5b919080806020026020016040519081016040528093929190818152602001838360200280828437600081840152601f19601f8201169050808301925050505050505091929192908035906020019064010000000081111561043757600080fd5b82018360208201111561044957600080fd5b8035906020019184602083028401116401000000008311171561046b57600080fd5b919080806020026020016040519081016040528093929190818152602001838360200280828437600081840152601f19601f820116905080830192505050505050509192919290505050610a69565b005b6104c4610bfa565b6040518080602001828103825283818151815260200191508051906020019060200280838360005b838110156105075780820151818401526020810190506104ec565b505050509050019250505060405180910390f35b610797600480360360a081101561053157600080fd5b81019080803590602001909291908035906020019064010000000081111561055857600080fd5b82018360208201111561056a57600080fd5b8035906020019184602083028401116401000000008311171561058c57600080fd5b919080806020026020016040519081016040528093929190818152602001838360200280828437600081840152601f19601f820116905080830192505050505050509192919290803590602001906401000000008111156105ec57600080fd5b8201836020820111156105fe57600080fd5b8035906020019184602083028401116401000000008311171561062057600080fd5b919080806020026020016040519081016040528093929190818152602001838360200280828437600081840152601f19601f8201169050808301925050505050505091929192908035906020019064010000000081111561068057600080fd5b82018360208201111561069257600080fd5b803590602001918460208302840111640100000000831117156106b457600080fd5b919080806020026020016040519081016040528093929190818152602001838360200280828437600081840152601f19601f8201169050808301925050505050505091929192908035906020019064010000000081111561071457600080fd5b82018360208201111561072657600080fd5b8035906020019184602083028401116401000000008311171561074857600080fd5b919080806020026020016040519081016040528093929190818152602001838360200280828437600081840152601f19601f820116905080830192505050505050509192919290505050610c88565b604051808215151515815260200191505060405180910390f35b6107b9610fe4565b604051808267ffffffffffffffff1667ffffffffffffffff16815260200191505060405180910390f35b61080f600480360360208110156107f957600080fd5b8101908080359060200190929190505050610ffe565b604051808273ffffffffffffffffffffffffffffffffffffffff1673ffffffffffffffffffffffffffffffffffffffff16815260200191505060405180910390f35b61099b6004803603604081101561086757600080fd5b810190808035906020019064010000000081111561088457600080fd5b82018360208201111561089657600080fd5b803590602001918460208302840111640100000000831117156108b857600080fd5b919080806020026020016040519081016040528093929190818152602001838360200280828437600081840152601f19601f8201169050808301925050505050505091929192908035906020019064010000000081111561091857600080fd5b82018360208201111561092a57600080fd5b8035906020019184602083028401116401000000008311171561094c57600080fd5b919080806020026020016040519081016040528093929190818152602001838360200280828437600081840152601f19601f82011690508083019250505050505050919291929050505061103a565b6040518082815260200191505060405180910390f35b6109b96110cd565b6040518080602001828103825283818151815260200191508051906020019060200280838360005b838110156109fc5780820151818401526020810190506109e1565b505050509050019250505060405180910390f35b60018181548110610a1d57fe5b9060005260206000209060049182820401919006600802915054906101000a900467ffffffffffffffff1681565b6000600260009054906101000a900467ffffffffffffffff16905090565b6000868660405160200180838051906020019060200280838360005b83811015610aa0578082015181840152602081019050610a85565b50505050905001828051906020019060200280838360005b83811015610ad3578082015181840152602081019050610ab8565b5050505090500192505050604051602081830303815290604052805190602001209050610b038186868686610c88565b610b75576040517f08c379a00000000000000000000000000000000000000000000000000000000081526004018080602001828103825260118152602001807f496e76616c69642076616c696461746f7200000000000000000000000000000081525060200191505060405180910390fd5b610b7f8787611159565b610bf1576040517f08c379a00000000000000000000000000000000000000000000000000000000081526004018080602001828103825260168152602001807f496e7465726e616c20757064617465206661696c65640000000000000000000081525060200191505060405180910390fd5b50505050505050565b60606000805480602002602001604051908101604052809291908181526020018280548015610c7e57602002820191906000526020600020905b8160009054906101000a900473ffffffffffffffffffffffffffffffffffffffff1673ffffffffffffffffffffffffffffffffffffffff1681526020019060010190808311610c34575b5050505050905090565b6000806000905060008090505b8651811015610f31576000811115610d4657866001820381518110610cb657fe5b6020026020010151878281518110610cca57fe5b602002602001015111610d45576040517f08c379a00000000000000000000000000000000000000000000000000000000081526004018080602001828103825260188152602001807f5369676e657273206172726179206e6f7420736f72746564000000000000000081525060200191505060405180910390fd5b5b6000600189888481518110610d5757fe5b6020026020010151888581518110610d6b57fe5b6020026020010151888681518110610d7f57fe5b602002602001015160405160008152602001604052604051808581526020018460ff1660ff1681526020018381526020018281526020019450505050506020604051602081039080840390855afa158015610dde573d6000803e3d6000fd5b5050506020604051035190506000888381518110610df857fe5b602002602001015181548110610e0a57fe5b9060005260206000200160009054906101000a900473ffffffffffffffffffffffffffffffffffffffff1673ffffffffffffffffffffffffffffffffffffffff168173ffffffffffffffffffffffffffffffffffffffff1614610ed5576040517f08c379a00000000000000000000000000000000000000000000000000000000081526004018080602001828103825260198152602001807f496e76616c696420726563697069656e7420616464726573730000000000000081525060200191505060405180910390fd5b6001888381518110610ee357fe5b602002602001015181548110610ef557fe5b90600052602060002090600491828204019190066008029054906101000a900467ffffffffffffffff1683019250508080600101915050610c95565b5060028060009054906101000a900467ffffffffffffffff160267ffffffffffffffff166003820267ffffffffffffffff1611610fd6576040517f08c379a00000000000000000000000000000000000000000000000000000000081526004018080602001828103825260158152602001807f4e6f7420656e6f756768207369676e617475726573000000000000000000000081525060200191505060405180910390fd5b600191505095945050505050565b600260009054906101000a900467ffffffffffffffff1681565b6000818154811061100b57fe5b906000526020600020016000915054906101000a900473ffffffffffffffffffffffffffffffffffffffff1681565b6000828260405160200180838051906020019060200280838360005b83811015611071578082015181840152602081019050611056565b50505050905001828051906020019060200280838360005b838110156110a4578082015181840152602081019050611089565b505050509050019250505060405160208183030381529060405280519060200120905092915050565b6060600180548060200260200160405190810160405280929190818152602001828054801561114f57602002820191906000526020600020906000905b82829054906101000a900467ffffffffffffffff1667ffffffffffffffff168152602001906008019060208260070104928301926001038202915080841161110a5790505b5050505050905090565b6000825160405190808252806020026020018201604052801561118b5781602001602082028038833980820191505090505b50600090805190602001906111a1929190611496565b5081516040519080825280602002602001820160405280156111d25781602001602082028038833980820191505090505b50600190805190602001906111e8929190611520565b506000600260006101000a81548167ffffffffffffffff021916908367ffffffffffffffff16021790555060008090505b83518110156113495783818151811061122e57fe5b60200260200101516000828154811061124357fe5b9060005260206000200160006101000a81548173ffffffffffffffffffffffffffffffffffffffff021916908373ffffffffffffffffffffffffffffffffffffffff16021790555082818151811061129757fe5b6020026020010151600182815481106112ac57fe5b90600052602060002090600491828204019190066008026101000a81548167ffffffffffffffff021916908367ffffffffffffffff1602179055508281815181106112f357fe5b6020026020010151600260008282829054906101000a900467ffffffffffffffff160192506101000a81548167ffffffffffffffff021916908367ffffffffffffffff1602179055508080600101915050611219565b5060006003549050807f41e3e7fbffa8e8d5523f548e6d8f0130b20aa4615fe6d442dae2db7172c84e4a6000600160405180806020018060200183810383528581815481526020019150805480156113f657602002820191906000526020600020905b8160009054906101000a900473ffffffffffffffffffffffffffffffffffffffff1673ffffffffffffffffffffffffffffffffffffffff16815260200190600101908083116113ac575b5050838103825284818154815260200191508054801561146957602002820191906000526020600020906000905b82829054906101000a900467ffffffffffffffff1667ffffffffffffffff16815260200190600801906020826007010492830192600103820291508084116114245790505b505094505050505060405180910390a2600360008154809291906001019190505550600191505092915050565b82805482825590600052602060002090810192821561150f579160200282015b8281111561150e5782518260006101000a81548173ffffffffffffffffffffffffffffffffffffffff021916908373ffffffffffffffffffffffffffffffffffffffff160217905550916020019190600101906114b6565b5b50905061151c91906115dc565b5090565b828054828255906000526020600020906003016004900481019282156115cb5791602002820160005b8382111561159557835183826101000a81548167ffffffffffffffff021916908367ffffffffffffffff1602179055509260200192600801602081600701049283019260010302611549565b80156115c95782816101000a81549067ffffffffffffffff0219169055600801602081600701049283019260010302611595565b505b5090506115d8919061161f565b5090565b61161c91905b8082111561161857600081816101000a81549073ffffffffffffffffffffffffffffffffffffffff0219169055506001016115e2565b5090565b90565b61165391905b8082111561164f57600081816101000a81549067ffffffffffffffff021916905550600101611625565b5090565b9056fea265627a7a72315820830a22f49760c24e52dd8dd903fec149ce8517b19f82c33f9203faa49d68420664736f6c63430005110032",
  "source": "pragma solidity ^0.5.0;\n\ncontract ValidatorSet {\n\n    /* Variables */\n\n    address[] public addresses;\n    uint64[] public powers;\n    uint64 public totalPower;\n    uint internal updateSeq = 0;\n\n\n    /* Events */\n\n    event Update(address[] newAddresses, uint64[] newPowers, uint indexed seq);\n\n\n    /* Getters (These are supposed to be auto implemented by solidity but aren't ¯\\_(ツ)_/¯) */\n\n    function getAddresses() public view returns (address[] memory) {\n        return addresses;\n    }\n\n    function getPowers() public view returns (uint64[] memory) {\n        return powers;\n    }\n\n    function getTotalPower() public view returns (uint64) {\n        return totalPower;\n    }\n\n\n    /* Functions */\n\n    function hashValidatorArrays(address[] memory addressesArr, uint64[] memory powersArr) public pure returns (bytes32 hash) {\n        return keccak256(abi.encodePacked(addressesArr, powersArr));\n    }\n\n    function verifyValidators(bytes32 hash, uint[] memory signers, uint8[] memory v, bytes32[] memory r, bytes32[] memory s)\n        public view returns (bool) {\n        uint64 signedPower = 0;\n        for (uint i = 0; i < signers.length; i++) {\n            if (i > 0) {\n                require(signers[i] > signers[i-1], \"Signers array not sorted\");\n            }\n            address recAddr = ecrecover(hash, v[i], r[i], s[i]);\n            require(recAddr == addresses[signers[i]], \"Invalid recipient address\");\n\n            signedPower += powers[signers[i]];\n        }\n        require(signedPower * 3 > totalPower * 2, \"Not enough signatures\");\n        return true;\n    }\n\n\n    function updateInternal(address[] memory newAddress, uint64[] memory newPowers) internal returns (bool) {\n        addresses = new address[](newAddress.length);\n        powers    = new uint64[](newPowers.length);\n        totalPower = 0;\n        for (uint i = 0; i < newAddress.length; i++) {\n            addresses[i] = newAddress[i];\n            powers[i]    = newPowers[i];\n            totalPower  += newPowers[i];\n        }\n        uint updateCount = updateSeq;\n        emit Update(addresses, powers, updateCount);\n        updateSeq++;\n        return true;\n    }\n\n\n    /**\n     * @dev Updates validator set. Called by the relayers.\n     * @param newAddress  new validators addresses\n     * @param newPowers    power of each validator\n     * @param signers     indexes of each signer validator\n     * @param v           recovery id. Used to compute ecrecover\n     * @param r           output of ECDSA signature. Used to compute ecrecover\n     * @param s           output of ECDSA signature.  Used to compute ecrecover\n     */\n    function update(address[] memory newAddress, uint64[] memory newPowers, uint[] memory signers, uint8[] memory v, bytes32[] memory r,\n        bytes32[] memory s) public {\n        bytes32 hashData = keccak256(abi.encodePacked(newAddress, newPowers));\n        require(verifyValidators(hashData, signers, v, r, s), \"Invalid validator\"); // hashing can be changed\n        require(updateInternal(newAddress, newPowers), \"Internal update failed\");\n    }\n\n    constructor(address[] memory initAddress, uint64[] memory initPowers) public {\n        updateInternal(initAddress, initPowers);\n    }\n}\n",
  "sourcePath": "/home/dataexim/Desktop/Projects/edgeth-bridge/contracts/ValidatorSet.sol",
  "compiler": {
    "name": "solc",
    "version": "0.5.17+commit.d19bba13.Emscripten.clang"
  },
  "schemaVersion": "3.4.1",
  "updatedAt": "2022-04-26T12:50:54.360Z",
  "networkType": "ethereum",
  "devdoc": {
    "methods": {
      "update(address[],uint64[],uint256[],uint8[],bytes32[],bytes32[])": {
        "details": "Updates validator set. Called by the relayers.",
        "params": {
          "newAddress": "new validators addresses",
          "newPowers": "power of each validator",
          "r": "output of ECDSA signature. Used to compute ecrecover",
          "s": "output of ECDSA signature.  Used to compute ecrecover",
          "signers": "indexes of each signer validator",
          "v": "recovery id. Used to compute ecrecover"
        }
      }
    }
  },
  "userdoc": {
    "methods": {}
  }
}